{
	"SimpleFlashLoan.sol": {
		"SimpleFlashLoan": {
			"abi": [
				{
					"inputs": [
						{
							"internalType": "address",
							"name": "_addressProvider",
							"type": "address"
						}
					],
					"stateMutability": "nonpayable",
					"type": "constructor"
				},
				{
					"inputs": [],
					"name": "ADDRESSES_PROVIDER",
					"outputs": [
						{
							"internalType": "contract IPoolAddressesProvider",
							"name": "",
							"type": "address"
						}
					],
					"stateMutability": "view",
					"type": "function"
				},
				{
					"inputs": [],
					"name": "POOL",
					"outputs": [
						{
							"internalType": "contract IPool",
							"name": "",
							"type": "address"
						}
					],
					"stateMutability": "view",
					"type": "function"
				},
				{
					"inputs": [
						{
							"internalType": "address",
							"name": "asset",
							"type": "address"
						},
						{
							"internalType": "uint256",
							"name": "amount",
							"type": "uint256"
						},
						{
							"internalType": "uint256",
							"name": "premium",
							"type": "uint256"
						},
						{
							"internalType": "address",
							"name": "initiator",
							"type": "address"
						},
						{
							"internalType": "bytes",
							"name": "params",
							"type": "bytes"
						}
					],
					"name": "executeOperation",
					"outputs": [
						{
							"internalType": "bool",
							"name": "",
							"type": "bool"
						}
					],
					"stateMutability": "nonpayable",
					"type": "function"
				},
				{
					"inputs": [
						{
							"internalType": "address",
							"name": "_token",
							"type": "address"
						},
						{
							"internalType": "uint256",
							"name": "_amount",
							"type": "uint256"
						}
					],
					"name": "fn_RequestFlashLoan",
					"outputs": [],
					"stateMutability": "nonpayable",
					"type": "function"
				},
				{
					"stateMutability": "payable",
					"type": "receive"
				}
			],
			"devdoc": {
				"kind": "dev",
				"methods": {},
				"version": 1
			},
			"evm": {
				"assembly": "    /* \"SimpleFlashLoan.sol\":399:1933  contract SimpleFlashLoan is FlashLoanSimpleReceiverBase {... */\n  mstore(0x40, 0xc0)\n    /* \"SimpleFlashLoan.sol\":489:616  constructor(address _addressProvider)... */\n  callvalue\n  dup1\n  iszero\n  tag_1\n  jumpi\n  0x00\n  dup1\n  revert\ntag_1:\n  pop\n  mload(0x40)\n  sub(codesize, bytecodeSize)\n  dup1\n  bytecodeSize\n  dup4\n  codecopy\n  dup2\n  dup2\n  add\n  0x40\n  mstore\n  dup2\n  add\n  swap1\n  tag_2\n  swap2\n  swap1\n  tag_3\n  jump\t// in\ntag_2:\n    /* \"SimpleFlashLoan.sol\":586:602  _addressProvider */\n  dup1\n    /* \"https://github.com/aave/aave-v3-core/blob/master/contracts/flashloan/base/FlashLoanSimpleReceiverBase.sol\":673:681  provider */\n  dup1\n    /* \"https://github.com/aave/aave-v3-core/blob/master/contracts/flashloan/base/FlashLoanSimpleReceiverBase.sol\":652:681  ADDRESSES_PROVIDER = provider */\n  0xffffffffffffffffffffffffffffffffffffffff\n  and\n  0x80\n  dup2\n  0xffffffffffffffffffffffffffffffffffffffff\n  and\n  dup2\n  mstore\n  pop\n  pop\n    /* \"https://github.com/aave/aave-v3-core/blob/master/contracts/flashloan/base/FlashLoanSimpleReceiverBase.sol\":700:708  provider */\n  dup1\n    /* \"https://github.com/aave/aave-v3-core/blob/master/contracts/flashloan/base/FlashLoanSimpleReceiverBase.sol\":700:716  provider.getPool */\n  0xffffffffffffffffffffffffffffffffffffffff\n  and\n  0x026b1d5f\n    /* \"https://github.com/aave/aave-v3-core/blob/master/contracts/flashloan/base/FlashLoanSimpleReceiverBase.sol\":700:718  provider.getPool() */\n  mload(0x40)\n  dup2\n  0xffffffff\n  and\n  0xe0\n  shl\n  dup2\n  mstore\n  0x04\n  add\n  0x20\n  mload(0x40)\n  dup1\n  dup4\n  sub\n  dup2\n  dup7\n  gas\n  staticcall\n  iszero\n  dup1\n  iszero\n  tag_8\n  jumpi\n  returndatasize\n  0x00\n  dup1\n  returndatacopy\n  revert(0x00, returndatasize)\ntag_8:\n  pop\n  pop\n  pop\n  pop\n  mload(0x40)\n  returndatasize\n  not(0x1f)\n  0x1f\n  dup3\n  add\n  and\n  dup3\n  add\n  dup1\n  0x40\n  mstore\n  pop\n  dup2\n  add\n  swap1\n  tag_9\n  swap2\n  swap1\n  tag_3\n  jump\t// in\ntag_9:\n    /* \"https://github.com/aave/aave-v3-core/blob/master/contracts/flashloan/base/FlashLoanSimpleReceiverBase.sol\":687:719  POOL = IPool(provider.getPool()) */\n  0xffffffffffffffffffffffffffffffffffffffff\n  and\n  0xa0\n  dup2\n  0xffffffffffffffffffffffffffffffffffffffff\n  and\n  dup2\n  mstore\n  pop\n  pop\n    /* \"https://github.com/aave/aave-v3-core/blob/master/contracts/flashloan/base/FlashLoanSimpleReceiverBase.sol\":601:724  constructor(IPoolAddressesProvider provider) {... */\n  pop\n    /* \"SimpleFlashLoan.sol\":489:616  constructor(address _addressProvider)... */\n  pop\n    /* \"SimpleFlashLoan.sol\":399:1933  contract SimpleFlashLoan is FlashLoanSimpleReceiverBase {... */\n  jump(tag_11)\n    /* \"#utility.yul\":88:205   */\ntag_13:\n    /* \"#utility.yul\":197:198   */\n  0x00\n    /* \"#utility.yul\":194:195   */\n  dup1\n    /* \"#utility.yul\":187:199   */\n  revert\n    /* \"#utility.yul\":334:460   */\ntag_15:\n    /* \"#utility.yul\":371:378   */\n  0x00\n    /* \"#utility.yul\":411:453   */\n  0xffffffffffffffffffffffffffffffffffffffff\n    /* \"#utility.yul\":404:409   */\n  dup3\n    /* \"#utility.yul\":400:454   */\n  and\n    /* \"#utility.yul\":389:454   */\n  swap1\n  pop\n    /* \"#utility.yul\":334:460   */\n  swap2\n  swap1\n  pop\n  jump\t// out\n    /* \"#utility.yul\":466:562   */\ntag_16:\n    /* \"#utility.yul\":503:510   */\n  0x00\n    /* \"#utility.yul\":532:556   */\n  tag_25\n    /* \"#utility.yul\":550:555   */\n  dup3\n    /* \"#utility.yul\":532:556   */\n  tag_15\n  jump\t// in\ntag_25:\n    /* \"#utility.yul\":521:556   */\n  swap1\n  pop\n    /* \"#utility.yul\":466:562   */\n  swap2\n  swap1\n  pop\n  jump\t// out\n    /* \"#utility.yul\":568:690   */\ntag_17:\n    /* \"#utility.yul\":641:665   */\n  tag_27\n    /* \"#utility.yul\":659:664   */\n  dup2\n    /* \"#utility.yul\":641:665   */\n  tag_16\n  jump\t// in\ntag_27:\n    /* \"#utility.yul\":634:639   */\n  dup2\n    /* \"#utility.yul\":631:666   */\n  eq\n    /* \"#utility.yul\":621:684   */\n  tag_28\n  jumpi\n    /* \"#utility.yul\":680:681   */\n  0x00\n    /* \"#utility.yul\":677:678   */\n  dup1\n    /* \"#utility.yul\":670:682   */\n  revert\n    /* \"#utility.yul\":621:684   */\ntag_28:\n    /* \"#utility.yul\":568:690   */\n  pop\n  jump\t// out\n    /* \"#utility.yul\":696:839   */\ntag_18:\n    /* \"#utility.yul\":753:758   */\n  0x00\n    /* \"#utility.yul\":784:790   */\n  dup2\n    /* \"#utility.yul\":778:791   */\n  mload\n    /* \"#utility.yul\":769:791   */\n  swap1\n  pop\n    /* \"#utility.yul\":800:833   */\n  tag_30\n    /* \"#utility.yul\":827:832   */\n  dup2\n    /* \"#utility.yul\":800:833   */\n  tag_17\n  jump\t// in\ntag_30:\n    /* \"#utility.yul\":696:839   */\n  swap3\n  swap2\n  pop\n  pop\n  jump\t// out\n    /* \"#utility.yul\":845:1196   */\ntag_3:\n    /* \"#utility.yul\":915:921   */\n  0x00\n    /* \"#utility.yul\":964:966   */\n  0x20\n    /* \"#utility.yul\":952:961   */\n  dup3\n    /* \"#utility.yul\":943:950   */\n  dup5\n    /* \"#utility.yul\":939:962   */\n  sub\n    /* \"#utility.yul\":935:967   */\n  slt\n    /* \"#utility.yul\":932:1051   */\n  iszero\n  tag_32\n  jumpi\n    /* \"#utility.yul\":970:1049   */\n  tag_33\n  tag_13\n  jump\t// in\ntag_33:\n    /* \"#utility.yul\":932:1051   */\ntag_32:\n    /* \"#utility.yul\":1090:1091   */\n  0x00\n    /* \"#utility.yul\":1115:1179   */\n  tag_34\n    /* \"#utility.yul\":1171:1178   */\n  dup5\n    /* \"#utility.yul\":1162:1168   */\n  dup3\n    /* \"#utility.yul\":1151:1160   */\n  dup6\n    /* \"#utility.yul\":1147:1169   */\n  add\n    /* \"#utility.yul\":1115:1179   */\n  tag_18\n  jump\t// in\ntag_34:\n    /* \"#utility.yul\":1105:1179   */\n  swap2\n  pop\n    /* \"#utility.yul\":1061:1189   */\n  pop\n    /* \"#utility.yul\":845:1196   */\n  swap3\n  swap2\n  pop\n  pop\n  jump\t// out\n    /* \"SimpleFlashLoan.sol\":399:1933  contract SimpleFlashLoan is FlashLoanSimpleReceiverBase {... */\ntag_11:\n  mload(0x80)\n  mload(0xa0)\n  codecopy(0x00, dataOffset(sub_0), dataSize(sub_0))\n  0x00\n  assignImmutable(\"0x07419a2d1ac8ef9d7b4eba9c7295219e418613ee09ce518ad2ceb0b79354e7bb\")\n  0x00\n  assignImmutable(\"0xdd5c0e85d12671451a2813ab72960178ae895d157199d23818aec59b00ee9e8b\")\n  return(0x00, dataSize(sub_0))\nstop\n\nsub_0: assembly {\n        /* \"SimpleFlashLoan.sol\":399:1933  contract SimpleFlashLoan is FlashLoanSimpleReceiverBase {... */\n      mstore(0x40, 0x80)\n      jumpi(tag_1, lt(calldatasize, 0x04))\n      shr(0xe0, calldataload(0x00))\n      dup1\n      0x0542975c\n      eq\n      tag_3\n      jumpi\n      dup1\n      0x1b11d0ff\n      eq\n      tag_4\n      jumpi\n      dup1\n      0x7535d246\n      eq\n      tag_5\n      jumpi\n      dup1\n      0x87c7f0ac\n      eq\n      tag_6\n      jumpi\n      jump(tag_2)\n    tag_1:\n      jumpi(tag_2, calldatasize)\n      stop\n    tag_2:\n      0x00\n      dup1\n      revert\n        /* \"https://github.com/aave/aave-v3-core/blob/master/contracts/flashloan/base/FlashLoanSimpleReceiverBase.sol\":489:556  IPoolAddressesProvider public immutable override ADDRESSES_PROVIDER */\n    tag_3:\n      callvalue\n      dup1\n      iszero\n      tag_9\n      jumpi\n      0x00\n      dup1\n      revert\n    tag_9:\n      pop\n      tag_10\n      tag_11\n      jump\t// in\n    tag_10:\n      mload(0x40)\n      tag_12\n      swap2\n      swap1\n      tag_13\n      jump\t// in\n    tag_12:\n      mload(0x40)\n      dup1\n      swap2\n      sub\n      swap1\n      return\n        /* \"SimpleFlashLoan.sol\":1182:1895  function  executeOperation(... */\n    tag_4:\n      callvalue\n      dup1\n      iszero\n      tag_14\n      jumpi\n      0x00\n      dup1\n      revert\n    tag_14:\n      pop\n      tag_15\n      0x04\n      dup1\n      calldatasize\n      sub\n      dup2\n      add\n      swap1\n      tag_16\n      swap2\n      swap1\n      tag_17\n      jump\t// in\n    tag_16:\n      tag_18\n      jump\t// in\n    tag_15:\n      mload(0x40)\n      tag_19\n      swap2\n      swap1\n      tag_20\n      jump\t// in\n    tag_19:\n      mload(0x40)\n      dup1\n      swap2\n      sub\n      swap1\n      return\n        /* \"https://github.com/aave/aave-v3-core/blob/master/contracts/flashloan/base/FlashLoanSimpleReceiverBase.sol\":560:596  IPool public immutable override POOL */\n    tag_5:\n      callvalue\n      dup1\n      iszero\n      tag_21\n      jumpi\n      0x00\n      dup1\n      revert\n    tag_21:\n      pop\n      tag_22\n      tag_23\n      jump\t// in\n    tag_22:\n      mload(0x40)\n      tag_24\n      swap2\n      swap1\n      tag_25\n      jump\t// in\n    tag_24:\n      mload(0x40)\n      dup1\n      swap2\n      sub\n      swap1\n      return\n        /* \"SimpleFlashLoan.sol\":622:1072  function fn_RequestFlashLoan(address _token, uint256 _amount) public {... */\n    tag_6:\n      callvalue\n      dup1\n      iszero\n      tag_26\n      jumpi\n      0x00\n      dup1\n      revert\n    tag_26:\n      pop\n      tag_27\n      0x04\n      dup1\n      calldatasize\n      sub\n      dup2\n      add\n      swap1\n      tag_28\n      swap2\n      swap1\n      tag_29\n      jump\t// in\n    tag_28:\n      tag_30\n      jump\t// in\n    tag_27:\n      stop\n        /* \"https://github.com/aave/aave-v3-core/blob/master/contracts/flashloan/base/FlashLoanSimpleReceiverBase.sol\":489:556  IPoolAddressesProvider public immutable override ADDRESSES_PROVIDER */\n    tag_11:\n      immutable(\"0xdd5c0e85d12671451a2813ab72960178ae895d157199d23818aec59b00ee9e8b\")\n      dup2\n      jump\t// out\n        /* \"SimpleFlashLoan.sol\":1182:1895  function  executeOperation(... */\n    tag_18:\n        /* \"SimpleFlashLoan.sol\":1373:1377  bool */\n      0x00\n        /* \"SimpleFlashLoan.sol\":1769:1788  uint256 totalAmount */\n      dup1\n        /* \"SimpleFlashLoan.sol\":1800:1807  premium */\n      dup6\n        /* \"SimpleFlashLoan.sol\":1791:1797  amount */\n      dup8\n        /* \"SimpleFlashLoan.sol\":1791:1807  amount + premium */\n      tag_32\n      swap2\n      swap1\n      tag_33\n      jump\t// in\n    tag_32:\n        /* \"SimpleFlashLoan.sol\":1769:1807  uint256 totalAmount = amount + premium */\n      swap1\n      pop\n        /* \"SimpleFlashLoan.sol\":1824:1829  asset */\n      dup8\n        /* \"SimpleFlashLoan.sol\":1817:1838  IERC20(asset).approve */\n      0xffffffffffffffffffffffffffffffffffffffff\n      and\n      0x095ea7b3\n        /* \"SimpleFlashLoan.sol\":1847:1851  POOL */\n      immutable(\"0x07419a2d1ac8ef9d7b4eba9c7295219e418613ee09ce518ad2ceb0b79354e7bb\")\n        /* \"SimpleFlashLoan.sol\":1854:1865  totalAmount */\n      dup4\n        /* \"SimpleFlashLoan.sol\":1817:1866  IERC20(asset).approve(address(POOL), totalAmount) */\n      mload(0x40)\n      dup4\n      0xffffffff\n      and\n      0xe0\n      shl\n      dup2\n      mstore\n      0x04\n      add\n      tag_34\n      swap3\n      swap2\n      swap1\n      tag_35\n      jump\t// in\n    tag_34:\n      0x20\n      mload(0x40)\n      dup1\n      dup4\n      sub\n      dup2\n      0x00\n      dup8\n      gas\n      call\n      iszero\n      dup1\n      iszero\n      tag_37\n      jumpi\n      returndatasize\n      0x00\n      dup1\n      returndatacopy\n      revert(0x00, returndatasize)\n    tag_37:\n      pop\n      pop\n      pop\n      pop\n      mload(0x40)\n      returndatasize\n      not(0x1f)\n      0x1f\n      dup3\n      add\n      and\n      dup3\n      add\n      dup1\n      0x40\n      mstore\n      pop\n      dup2\n      add\n      swap1\n      tag_38\n      swap2\n      swap1\n      tag_39\n      jump\t// in\n    tag_38:\n      pop\n        /* \"SimpleFlashLoan.sol\":1884:1888  true */\n      0x01\n        /* \"SimpleFlashLoan.sol\":1877:1888  return true */\n      swap2\n      pop\n      pop\n        /* \"SimpleFlashLoan.sol\":1182:1895  function  executeOperation(... */\n      swap7\n      swap6\n      pop\n      pop\n      pop\n      pop\n      pop\n      pop\n      jump\t// out\n        /* \"https://github.com/aave/aave-v3-core/blob/master/contracts/flashloan/base/FlashLoanSimpleReceiverBase.sol\":560:596  IPool public immutable override POOL */\n    tag_23:\n      immutable(\"0x07419a2d1ac8ef9d7b4eba9c7295219e418613ee09ce518ad2ceb0b79354e7bb\")\n      dup2\n      jump\t// out\n        /* \"SimpleFlashLoan.sol\":622:1072  function fn_RequestFlashLoan(address _token, uint256 _amount) public {... */\n    tag_30:\n        /* \"SimpleFlashLoan.sol\":701:724  address receiverAddress */\n      0x00\n        /* \"SimpleFlashLoan.sol\":735:739  this */\n      address\n        /* \"SimpleFlashLoan.sol\":701:740  address receiverAddress = address(this) */\n      swap1\n      pop\n        /* \"SimpleFlashLoan.sol\":750:763  address asset */\n      0x00\n        /* \"SimpleFlashLoan.sol\":766:772  _token */\n      dup4\n        /* \"SimpleFlashLoan.sol\":750:772  address asset = _token */\n      swap1\n      pop\n        /* \"SimpleFlashLoan.sol\":782:796  uint256 amount */\n      0x00\n        /* \"SimpleFlashLoan.sol\":799:806  _amount */\n      dup4\n        /* \"SimpleFlashLoan.sol\":782:806  uint256 amount = _amount */\n      swap1\n      pop\n        /* \"SimpleFlashLoan.sol\":816:835  bytes memory params */\n      0x00\n        /* \"SimpleFlashLoan.sol\":816:840  bytes memory params = \"\" */\n      mload(0x40)\n      dup1\n      0x20\n      add\n      0x40\n      mstore\n      dup1\n      0x00\n      dup2\n      mstore\n      pop\n      swap1\n      pop\n        /* \"SimpleFlashLoan.sol\":850:869  uint16 referralCode */\n      0x00\n        /* \"SimpleFlashLoan.sol\":920:924  POOL */\n      immutable(\"0x07419a2d1ac8ef9d7b4eba9c7295219e418613ee09ce518ad2ceb0b79354e7bb\")\n        /* \"SimpleFlashLoan.sol\":920:940  POOL.flashLoanSimple */\n      0xffffffffffffffffffffffffffffffffffffffff\n      and\n      0x42b0b77c\n        /* \"SimpleFlashLoan.sol\":954:969  receiverAddress */\n      dup7\n        /* \"SimpleFlashLoan.sol\":983:988  asset */\n      dup7\n        /* \"SimpleFlashLoan.sol\":1002:1008  amount */\n      dup7\n        /* \"SimpleFlashLoan.sol\":1022:1028  params */\n      dup7\n        /* \"SimpleFlashLoan.sol\":1042:1054  referralCode */\n      dup7\n        /* \"SimpleFlashLoan.sol\":920:1064  POOL.flashLoanSimple(... */\n      mload(0x40)\n      dup7\n      0xffffffff\n      and\n      0xe0\n      shl\n      dup2\n      mstore\n      0x04\n      add\n      tag_41\n      swap6\n      swap5\n      swap4\n      swap3\n      swap2\n      swap1\n      tag_42\n      jump\t// in\n    tag_41:\n      0x00\n      mload(0x40)\n      dup1\n      dup4\n      sub\n      dup2\n      0x00\n      dup8\n      dup1\n      extcodesize\n      iszero\n      dup1\n      iszero\n      tag_43\n      jumpi\n      0x00\n      dup1\n      revert\n    tag_43:\n      pop\n      gas\n      call\n      iszero\n      dup1\n      iszero\n      tag_45\n      jumpi\n      returndatasize\n      0x00\n      dup1\n      returndatacopy\n      revert(0x00, returndatasize)\n    tag_45:\n      pop\n      pop\n      pop\n      pop\n        /* \"SimpleFlashLoan.sol\":691:1072  {... */\n      pop\n      pop\n      pop\n      pop\n      pop\n        /* \"SimpleFlashLoan.sol\":622:1072  function fn_RequestFlashLoan(address _token, uint256 _amount) public {... */\n      pop\n      pop\n      jump\t// out\n        /* \"#utility.yul\":7:133   */\n    tag_46:\n        /* \"#utility.yul\":44:51   */\n      0x00\n        /* \"#utility.yul\":84:126   */\n      0xffffffffffffffffffffffffffffffffffffffff\n        /* \"#utility.yul\":77:82   */\n      dup3\n        /* \"#utility.yul\":73:127   */\n      and\n        /* \"#utility.yul\":62:127   */\n      swap1\n      pop\n        /* \"#utility.yul\":7:133   */\n      swap2\n      swap1\n      pop\n      jump\t// out\n        /* \"#utility.yul\":139:199   */\n    tag_47:\n        /* \"#utility.yul\":167:170   */\n      0x00\n        /* \"#utility.yul\":188:193   */\n      dup2\n        /* \"#utility.yul\":181:193   */\n      swap1\n      pop\n        /* \"#utility.yul\":139:199   */\n      swap2\n      swap1\n      pop\n      jump\t// out\n        /* \"#utility.yul\":205:347   */\n    tag_48:\n        /* \"#utility.yul\":255:264   */\n      0x00\n        /* \"#utility.yul\":288:341   */\n      tag_85\n        /* \"#utility.yul\":306:340   */\n      tag_86\n        /* \"#utility.yul\":315:339   */\n      tag_87\n        /* \"#utility.yul\":333:338   */\n      dup5\n        /* \"#utility.yul\":315:339   */\n      tag_46\n      jump\t// in\n    tag_87:\n        /* \"#utility.yul\":306:340   */\n      tag_47\n      jump\t// in\n    tag_86:\n        /* \"#utility.yul\":288:341   */\n      tag_46\n      jump\t// in\n    tag_85:\n        /* \"#utility.yul\":275:341   */\n      swap1\n      pop\n        /* \"#utility.yul\":205:347   */\n      swap2\n      swap1\n      pop\n      jump\t// out\n        /* \"#utility.yul\":353:479   */\n    tag_49:\n        /* \"#utility.yul\":403:412   */\n      0x00\n        /* \"#utility.yul\":436:473   */\n      tag_89\n        /* \"#utility.yul\":467:472   */\n      dup3\n        /* \"#utility.yul\":436:473   */\n      tag_48\n      jump\t// in\n    tag_89:\n        /* \"#utility.yul\":423:473   */\n      swap1\n      pop\n        /* \"#utility.yul\":353:479   */\n      swap2\n      swap1\n      pop\n      jump\t// out\n        /* \"#utility.yul\":485:642   */\n    tag_50:\n        /* \"#utility.yul\":566:575   */\n      0x00\n        /* \"#utility.yul\":599:636   */\n      tag_91\n        /* \"#utility.yul\":630:635   */\n      dup3\n        /* \"#utility.yul\":599:636   */\n      tag_49\n      jump\t// in\n    tag_91:\n        /* \"#utility.yul\":586:636   */\n      swap1\n      pop\n        /* \"#utility.yul\":485:642   */\n      swap2\n      swap1\n      pop\n      jump\t// out\n        /* \"#utility.yul\":648:841   */\n    tag_51:\n        /* \"#utility.yul\":766:834   */\n      tag_93\n        /* \"#utility.yul\":828:833   */\n      dup2\n        /* \"#utility.yul\":766:834   */\n      tag_50\n      jump\t// in\n    tag_93:\n        /* \"#utility.yul\":761:764   */\n      dup3\n        /* \"#utility.yul\":754:835   */\n      mstore\n        /* \"#utility.yul\":648:841   */\n      pop\n      pop\n      jump\t// out\n        /* \"#utility.yul\":847:1131   */\n    tag_13:\n        /* \"#utility.yul\":971:975   */\n      0x00\n        /* \"#utility.yul\":1009:1011   */\n      0x20\n        /* \"#utility.yul\":998:1007   */\n      dup3\n        /* \"#utility.yul\":994:1012   */\n      add\n        /* \"#utility.yul\":986:1012   */\n      swap1\n      pop\n        /* \"#utility.yul\":1022:1124   */\n      tag_95\n        /* \"#utility.yul\":1121:1122   */\n      0x00\n        /* \"#utility.yul\":1110:1119   */\n      dup4\n        /* \"#utility.yul\":1106:1123   */\n      add\n        /* \"#utility.yul\":1097:1103   */\n      dup5\n        /* \"#utility.yul\":1022:1124   */\n      tag_51\n      jump\t// in\n    tag_95:\n        /* \"#utility.yul\":847:1131   */\n      swap3\n      swap2\n      pop\n      pop\n      jump\t// out\n        /* \"#utility.yul\":1218:1335   */\n    tag_53:\n        /* \"#utility.yul\":1327:1328   */\n      0x00\n        /* \"#utility.yul\":1324:1325   */\n      dup1\n        /* \"#utility.yul\":1317:1329   */\n      revert\n        /* \"#utility.yul\":1341:1458   */\n    tag_54:\n        /* \"#utility.yul\":1450:1451   */\n      0x00\n        /* \"#utility.yul\":1447:1448   */\n      dup1\n        /* \"#utility.yul\":1440:1452   */\n      revert\n        /* \"#utility.yul\":1464:1560   */\n    tag_55:\n        /* \"#utility.yul\":1501:1508   */\n      0x00\n        /* \"#utility.yul\":1530:1554   */\n      tag_100\n        /* \"#utility.yul\":1548:1553   */\n      dup3\n        /* \"#utility.yul\":1530:1554   */\n      tag_46\n      jump\t// in\n    tag_100:\n        /* \"#utility.yul\":1519:1554   */\n      swap1\n      pop\n        /* \"#utility.yul\":1464:1560   */\n      swap2\n      swap1\n      pop\n      jump\t// out\n        /* \"#utility.yul\":1566:1688   */\n    tag_56:\n        /* \"#utility.yul\":1639:1663   */\n      tag_102\n        /* \"#utility.yul\":1657:1662   */\n      dup2\n        /* \"#utility.yul\":1639:1663   */\n      tag_55\n      jump\t// in\n    tag_102:\n        /* \"#utility.yul\":1632:1637   */\n      dup2\n        /* \"#utility.yul\":1629:1664   */\n      eq\n        /* \"#utility.yul\":1619:1682   */\n      tag_103\n      jumpi\n        /* \"#utility.yul\":1678:1679   */\n      0x00\n        /* \"#utility.yul\":1675:1676   */\n      dup1\n        /* \"#utility.yul\":1668:1680   */\n      revert\n        /* \"#utility.yul\":1619:1682   */\n    tag_103:\n        /* \"#utility.yul\":1566:1688   */\n      pop\n      jump\t// out\n        /* \"#utility.yul\":1694:1833   */\n    tag_57:\n        /* \"#utility.yul\":1740:1745   */\n      0x00\n        /* \"#utility.yul\":1778:1784   */\n      dup2\n        /* \"#utility.yul\":1765:1785   */\n      calldataload\n        /* \"#utility.yul\":1756:1785   */\n      swap1\n      pop\n        /* \"#utility.yul\":1794:1827   */\n      tag_105\n        /* \"#utility.yul\":1821:1826   */\n      dup2\n        /* \"#utility.yul\":1794:1827   */\n      tag_56\n      jump\t// in\n    tag_105:\n        /* \"#utility.yul\":1694:1833   */\n      swap3\n      swap2\n      pop\n      pop\n      jump\t// out\n        /* \"#utility.yul\":1839:1916   */\n    tag_58:\n        /* \"#utility.yul\":1876:1883   */\n      0x00\n        /* \"#utility.yul\":1905:1910   */\n      dup2\n        /* \"#utility.yul\":1894:1910   */\n      swap1\n      pop\n        /* \"#utility.yul\":1839:1916   */\n      swap2\n      swap1\n      pop\n      jump\t// out\n        /* \"#utility.yul\":1922:2044   */\n    tag_59:\n        /* \"#utility.yul\":1995:2019   */\n      tag_108\n        /* \"#utility.yul\":2013:2018   */\n      dup2\n        /* \"#utility.yul\":1995:2019   */\n      tag_58\n      jump\t// in\n    tag_108:\n        /* \"#utility.yul\":1988:1993   */\n      dup2\n        /* \"#utility.yul\":1985:2020   */\n      eq\n        /* \"#utility.yul\":1975:2038   */\n      tag_109\n      jumpi\n        /* \"#utility.yul\":2034:2035   */\n      0x00\n        /* \"#utility.yul\":2031:2032   */\n      dup1\n        /* \"#utility.yul\":2024:2036   */\n      revert\n        /* \"#utility.yul\":1975:2038   */\n    tag_109:\n        /* \"#utility.yul\":1922:2044   */\n      pop\n      jump\t// out\n        /* \"#utility.yul\":2050:2189   */\n    tag_60:\n        /* \"#utility.yul\":2096:2101   */\n      0x00\n        /* \"#utility.yul\":2134:2140   */\n      dup2\n        /* \"#utility.yul\":2121:2141   */\n      calldataload\n        /* \"#utility.yul\":2112:2141   */\n      swap1\n      pop\n        /* \"#utility.yul\":2150:2183   */\n      tag_111\n        /* \"#utility.yul\":2177:2182   */\n      dup2\n        /* \"#utility.yul\":2150:2183   */\n      tag_59\n      jump\t// in\n    tag_111:\n        /* \"#utility.yul\":2050:2189   */\n      swap3\n      swap2\n      pop\n      pop\n      jump\t// out\n        /* \"#utility.yul\":2195:2312   */\n    tag_61:\n        /* \"#utility.yul\":2304:2305   */\n      0x00\n        /* \"#utility.yul\":2301:2302   */\n      dup1\n        /* \"#utility.yul\":2294:2306   */\n      revert\n        /* \"#utility.yul\":2318:2435   */\n    tag_62:\n        /* \"#utility.yul\":2427:2428   */\n      0x00\n        /* \"#utility.yul\":2424:2425   */\n      dup1\n        /* \"#utility.yul\":2417:2429   */\n      revert\n        /* \"#utility.yul\":2441:2558   */\n    tag_63:\n        /* \"#utility.yul\":2550:2551   */\n      0x00\n        /* \"#utility.yul\":2547:2548   */\n      dup1\n        /* \"#utility.yul\":2540:2552   */\n      revert\n        /* \"#utility.yul\":2577:3129   */\n    tag_64:\n        /* \"#utility.yul\":2634:2642   */\n      0x00\n        /* \"#utility.yul\":2644:2650   */\n      dup1\n        /* \"#utility.yul\":2694:2697   */\n      dup4\n        /* \"#utility.yul\":2687:2691   */\n      0x1f\n        /* \"#utility.yul\":2679:2685   */\n      dup5\n        /* \"#utility.yul\":2675:2692   */\n      add\n        /* \"#utility.yul\":2671:2698   */\n      slt\n        /* \"#utility.yul\":2661:2783   */\n      tag_116\n      jumpi\n        /* \"#utility.yul\":2702:2781   */\n      tag_117\n      tag_61\n      jump\t// in\n    tag_117:\n        /* \"#utility.yul\":2661:2783   */\n    tag_116:\n        /* \"#utility.yul\":2815:2821   */\n      dup3\n        /* \"#utility.yul\":2802:2822   */\n      calldataload\n        /* \"#utility.yul\":2792:2822   */\n      swap1\n      pop\n        /* \"#utility.yul\":2845:2863   */\n      0xffffffffffffffff\n        /* \"#utility.yul\":2837:2843   */\n      dup2\n        /* \"#utility.yul\":2834:2864   */\n      gt\n        /* \"#utility.yul\":2831:2948   */\n      iszero\n      tag_118\n      jumpi\n        /* \"#utility.yul\":2867:2946   */\n      tag_119\n      tag_62\n      jump\t// in\n    tag_119:\n        /* \"#utility.yul\":2831:2948   */\n    tag_118:\n        /* \"#utility.yul\":2981:2985   */\n      0x20\n        /* \"#utility.yul\":2973:2979   */\n      dup4\n        /* \"#utility.yul\":2969:2986   */\n      add\n        /* \"#utility.yul\":2957:2986   */\n      swap2\n      pop\n        /* \"#utility.yul\":3035:3038   */\n      dup4\n        /* \"#utility.yul\":3027:3031   */\n      0x01\n        /* \"#utility.yul\":3019:3025   */\n      dup3\n        /* \"#utility.yul\":3015:3032   */\n      mul\n        /* \"#utility.yul\":3005:3013   */\n      dup4\n        /* \"#utility.yul\":3001:3033   */\n      add\n        /* \"#utility.yul\":2998:3039   */\n      gt\n        /* \"#utility.yul\":2995:3123   */\n      iszero\n      tag_120\n      jumpi\n        /* \"#utility.yul\":3042:3121   */\n      tag_121\n      tag_63\n      jump\t// in\n    tag_121:\n        /* \"#utility.yul\":2995:3123   */\n    tag_120:\n        /* \"#utility.yul\":2577:3129   */\n      swap3\n      pop\n      swap3\n      swap1\n      pop\n      jump\t// out\n        /* \"#utility.yul\":3135:4244   */\n    tag_17:\n        /* \"#utility.yul\":3241:3247   */\n      0x00\n        /* \"#utility.yul\":3249:3255   */\n      dup1\n        /* \"#utility.yul\":3257:3263   */\n      0x00\n        /* \"#utility.yul\":3265:3271   */\n      dup1\n        /* \"#utility.yul\":3273:3279   */\n      0x00\n        /* \"#utility.yul\":3281:3287   */\n      dup1\n        /* \"#utility.yul\":3330:3333   */\n      0xa0\n        /* \"#utility.yul\":3318:3327   */\n      dup8\n        /* \"#utility.yul\":3309:3316   */\n      dup10\n        /* \"#utility.yul\":3305:3328   */\n      sub\n        /* \"#utility.yul\":3301:3334   */\n      slt\n        /* \"#utility.yul\":3298:3418   */\n      iszero\n      tag_123\n      jumpi\n        /* \"#utility.yul\":3337:3416   */\n      tag_124\n      tag_53\n      jump\t// in\n    tag_124:\n        /* \"#utility.yul\":3298:3418   */\n    tag_123:\n        /* \"#utility.yul\":3457:3458   */\n      0x00\n        /* \"#utility.yul\":3482:3535   */\n      tag_125\n        /* \"#utility.yul\":3527:3534   */\n      dup10\n        /* \"#utility.yul\":3518:3524   */\n      dup3\n        /* \"#utility.yul\":3507:3516   */\n      dup11\n        /* \"#utility.yul\":3503:3525   */\n      add\n        /* \"#utility.yul\":3482:3535   */\n      tag_57\n      jump\t// in\n    tag_125:\n        /* \"#utility.yul\":3472:3535   */\n      swap7\n      pop\n        /* \"#utility.yul\":3428:3545   */\n      pop\n        /* \"#utility.yul\":3584:3586   */\n      0x20\n        /* \"#utility.yul\":3610:3663   */\n      tag_126\n        /* \"#utility.yul\":3655:3662   */\n      dup10\n        /* \"#utility.yul\":3646:3652   */\n      dup3\n        /* \"#utility.yul\":3635:3644   */\n      dup11\n        /* \"#utility.yul\":3631:3653   */\n      add\n        /* \"#utility.yul\":3610:3663   */\n      tag_60\n      jump\t// in\n    tag_126:\n        /* \"#utility.yul\":3600:3663   */\n      swap6\n      pop\n        /* \"#utility.yul\":3555:3673   */\n      pop\n        /* \"#utility.yul\":3712:3714   */\n      0x40\n        /* \"#utility.yul\":3738:3791   */\n      tag_127\n        /* \"#utility.yul\":3783:3790   */\n      dup10\n        /* \"#utility.yul\":3774:3780   */\n      dup3\n        /* \"#utility.yul\":3763:3772   */\n      dup11\n        /* \"#utility.yul\":3759:3781   */\n      add\n        /* \"#utility.yul\":3738:3791   */\n      tag_60\n      jump\t// in\n    tag_127:\n        /* \"#utility.yul\":3728:3791   */\n      swap5\n      pop\n        /* \"#utility.yul\":3683:3801   */\n      pop\n        /* \"#utility.yul\":3840:3842   */\n      0x60\n        /* \"#utility.yul\":3866:3919   */\n      tag_128\n        /* \"#utility.yul\":3911:3918   */\n      dup10\n        /* \"#utility.yul\":3902:3908   */\n      dup3\n        /* \"#utility.yul\":3891:3900   */\n      dup11\n        /* \"#utility.yul\":3887:3909   */\n      add\n        /* \"#utility.yul\":3866:3919   */\n      tag_57\n      jump\t// in\n    tag_128:\n        /* \"#utility.yul\":3856:3919   */\n      swap4\n      pop\n        /* \"#utility.yul\":3811:3929   */\n      pop\n        /* \"#utility.yul\":3996:3999   */\n      0x80\n        /* \"#utility.yul\":3985:3994   */\n      dup8\n        /* \"#utility.yul\":3981:4000   */\n      add\n        /* \"#utility.yul\":3968:4001   */\n      calldataload\n        /* \"#utility.yul\":4028:4046   */\n      0xffffffffffffffff\n        /* \"#utility.yul\":4020:4026   */\n      dup2\n        /* \"#utility.yul\":4017:4047   */\n      gt\n        /* \"#utility.yul\":4014:4131   */\n      iszero\n      tag_129\n      jumpi\n        /* \"#utility.yul\":4050:4129   */\n      tag_130\n      tag_54\n      jump\t// in\n    tag_130:\n        /* \"#utility.yul\":4014:4131   */\n    tag_129:\n        /* \"#utility.yul\":4163:4227   */\n      tag_131\n        /* \"#utility.yul\":4219:4226   */\n      dup10\n        /* \"#utility.yul\":4210:4216   */\n      dup3\n        /* \"#utility.yul\":4199:4208   */\n      dup11\n        /* \"#utility.yul\":4195:4217   */\n      add\n        /* \"#utility.yul\":4163:4227   */\n      tag_64\n      jump\t// in\n    tag_131:\n        /* \"#utility.yul\":4145:4227   */\n      swap3\n      pop\n      swap3\n      pop\n        /* \"#utility.yul\":3939:4237   */\n      pop\n        /* \"#utility.yul\":3135:4244   */\n      swap3\n      swap6\n      pop\n      swap3\n      swap6\n      pop\n      swap3\n      swap6\n      jump\t// out\n        /* \"#utility.yul\":4250:4340   */\n    tag_65:\n        /* \"#utility.yul\":4284:4291   */\n      0x00\n        /* \"#utility.yul\":4327:4332   */\n      dup2\n        /* \"#utility.yul\":4320:4333   */\n      iszero\n        /* \"#utility.yul\":4313:4334   */\n      iszero\n        /* \"#utility.yul\":4302:4334   */\n      swap1\n      pop\n        /* \"#utility.yul\":4250:4340   */\n      swap2\n      swap1\n      pop\n      jump\t// out\n        /* \"#utility.yul\":4346:4455   */\n    tag_66:\n        /* \"#utility.yul\":4427:4448   */\n      tag_134\n        /* \"#utility.yul\":4442:4447   */\n      dup2\n        /* \"#utility.yul\":4427:4448   */\n      tag_65\n      jump\t// in\n    tag_134:\n        /* \"#utility.yul\":4422:4425   */\n      dup3\n        /* \"#utility.yul\":4415:4449   */\n      mstore\n        /* \"#utility.yul\":4346:4455   */\n      pop\n      pop\n      jump\t// out\n        /* \"#utility.yul\":4461:4671   */\n    tag_20:\n        /* \"#utility.yul\":4548:4552   */\n      0x00\n        /* \"#utility.yul\":4586:4588   */\n      0x20\n        /* \"#utility.yul\":4575:4584   */\n      dup3\n        /* \"#utility.yul\":4571:4589   */\n      add\n        /* \"#utility.yul\":4563:4589   */\n      swap1\n      pop\n        /* \"#utility.yul\":4599:4664   */\n      tag_136\n        /* \"#utility.yul\":4661:4662   */\n      0x00\n        /* \"#utility.yul\":4650:4659   */\n      dup4\n        /* \"#utility.yul\":4646:4663   */\n      add\n        /* \"#utility.yul\":4637:4643   */\n      dup5\n        /* \"#utility.yul\":4599:4664   */\n      tag_66\n      jump\t// in\n    tag_136:\n        /* \"#utility.yul\":4461:4671   */\n      swap3\n      swap2\n      pop\n      pop\n      jump\t// out\n        /* \"#utility.yul\":4677:4816   */\n    tag_67:\n        /* \"#utility.yul\":4740:4749   */\n      0x00\n        /* \"#utility.yul\":4773:4810   */\n      tag_138\n        /* \"#utility.yul\":4804:4809   */\n      dup3\n        /* \"#utility.yul\":4773:4810   */\n      tag_49\n      jump\t// in\n    tag_138:\n        /* \"#utility.yul\":4760:4810   */\n      swap1\n      pop\n        /* \"#utility.yul\":4677:4816   */\n      swap2\n      swap1\n      pop\n      jump\t// out\n        /* \"#utility.yul\":4822:4979   */\n    tag_68:\n        /* \"#utility.yul\":4922:4972   */\n      tag_140\n        /* \"#utility.yul\":4966:4971   */\n      dup2\n        /* \"#utility.yul\":4922:4972   */\n      tag_67\n      jump\t// in\n    tag_140:\n        /* \"#utility.yul\":4917:4920   */\n      dup3\n        /* \"#utility.yul\":4910:4973   */\n      mstore\n        /* \"#utility.yul\":4822:4979   */\n      pop\n      pop\n      jump\t// out\n        /* \"#utility.yul\":4985:5233   */\n    tag_25:\n        /* \"#utility.yul\":5091:5095   */\n      0x00\n        /* \"#utility.yul\":5129:5131   */\n      0x20\n        /* \"#utility.yul\":5118:5127   */\n      dup3\n        /* \"#utility.yul\":5114:5132   */\n      add\n        /* \"#utility.yul\":5106:5132   */\n      swap1\n      pop\n        /* \"#utility.yul\":5142:5226   */\n      tag_142\n        /* \"#utility.yul\":5223:5224   */\n      0x00\n        /* \"#utility.yul\":5212:5221   */\n      dup4\n        /* \"#utility.yul\":5208:5225   */\n      add\n        /* \"#utility.yul\":5199:5205   */\n      dup5\n        /* \"#utility.yul\":5142:5226   */\n      tag_68\n      jump\t// in\n    tag_142:\n        /* \"#utility.yul\":4985:5233   */\n      swap3\n      swap2\n      pop\n      pop\n      jump\t// out\n        /* \"#utility.yul\":5239:5713   */\n    tag_29:\n        /* \"#utility.yul\":5307:5313   */\n      0x00\n        /* \"#utility.yul\":5315:5321   */\n      dup1\n        /* \"#utility.yul\":5364:5366   */\n      0x40\n        /* \"#utility.yul\":5352:5361   */\n      dup4\n        /* \"#utility.yul\":5343:5350   */\n      dup6\n        /* \"#utility.yul\":5339:5362   */\n      sub\n        /* \"#utility.yul\":5335:5367   */\n      slt\n        /* \"#utility.yul\":5332:5451   */\n      iszero\n      tag_144\n      jumpi\n        /* \"#utility.yul\":5370:5449   */\n      tag_145\n      tag_53\n      jump\t// in\n    tag_145:\n        /* \"#utility.yul\":5332:5451   */\n    tag_144:\n        /* \"#utility.yul\":5490:5491   */\n      0x00\n        /* \"#utility.yul\":5515:5568   */\n      tag_146\n        /* \"#utility.yul\":5560:5567   */\n      dup6\n        /* \"#utility.yul\":5551:5557   */\n      dup3\n        /* \"#utility.yul\":5540:5549   */\n      dup7\n        /* \"#utility.yul\":5536:5558   */\n      add\n        /* \"#utility.yul\":5515:5568   */\n      tag_57\n      jump\t// in\n    tag_146:\n        /* \"#utility.yul\":5505:5568   */\n      swap3\n      pop\n        /* \"#utility.yul\":5461:5578   */\n      pop\n        /* \"#utility.yul\":5617:5619   */\n      0x20\n        /* \"#utility.yul\":5643:5696   */\n      tag_147\n        /* \"#utility.yul\":5688:5695   */\n      dup6\n        /* \"#utility.yul\":5679:5685   */\n      dup3\n        /* \"#utility.yul\":5668:5677   */\n      dup7\n        /* \"#utility.yul\":5664:5686   */\n      add\n        /* \"#utility.yul\":5643:5696   */\n      tag_60\n      jump\t// in\n    tag_147:\n        /* \"#utility.yul\":5633:5696   */\n      swap2\n      pop\n        /* \"#utility.yul\":5588:5706   */\n      pop\n        /* \"#utility.yul\":5239:5713   */\n      swap3\n      pop\n      swap3\n      swap1\n      pop\n      jump\t// out\n        /* \"#utility.yul\":5719:5899   */\n    tag_69:\n        /* \"#utility.yul\":5767:5844   */\n      0x4e487b7100000000000000000000000000000000000000000000000000000000\n        /* \"#utility.yul\":5764:5765   */\n      0x00\n        /* \"#utility.yul\":5757:5845   */\n      mstore\n        /* \"#utility.yul\":5864:5868   */\n      0x11\n        /* \"#utility.yul\":5861:5862   */\n      0x04\n        /* \"#utility.yul\":5854:5869   */\n      mstore\n        /* \"#utility.yul\":5888:5892   */\n      0x24\n        /* \"#utility.yul\":5885:5886   */\n      0x00\n        /* \"#utility.yul\":5878:5893   */\n      revert\n        /* \"#utility.yul\":5905:6210   */\n    tag_33:\n        /* \"#utility.yul\":5945:5948   */\n      0x00\n        /* \"#utility.yul\":5964:5984   */\n      tag_150\n        /* \"#utility.yul\":5982:5983   */\n      dup3\n        /* \"#utility.yul\":5964:5984   */\n      tag_58\n      jump\t// in\n    tag_150:\n        /* \"#utility.yul\":5959:5984   */\n      swap2\n      pop\n        /* \"#utility.yul\":5998:6018   */\n      tag_151\n        /* \"#utility.yul\":6016:6017   */\n      dup4\n        /* \"#utility.yul\":5998:6018   */\n      tag_58\n      jump\t// in\n    tag_151:\n        /* \"#utility.yul\":5993:6018   */\n      swap3\n      pop\n        /* \"#utility.yul\":6152:6153   */\n      dup3\n        /* \"#utility.yul\":6084:6150   */\n      0xffffffffffffffffffffffffffffffffffffffffffffffffffffffffffffffff\n        /* \"#utility.yul\":6080:6154   */\n      sub\n        /* \"#utility.yul\":6077:6078   */\n      dup3\n        /* \"#utility.yul\":6074:6155   */\n      gt\n        /* \"#utility.yul\":6071:6178   */\n      iszero\n      tag_152\n      jumpi\n        /* \"#utility.yul\":6158:6176   */\n      tag_153\n      tag_69\n      jump\t// in\n    tag_153:\n        /* \"#utility.yul\":6071:6178   */\n    tag_152:\n        /* \"#utility.yul\":6202:6203   */\n      dup3\n        /* \"#utility.yul\":6199:6200   */\n      dup3\n        /* \"#utility.yul\":6195:6204   */\n      add\n        /* \"#utility.yul\":6188:6204   */\n      swap1\n      pop\n        /* \"#utility.yul\":5905:6210   */\n      swap3\n      swap2\n      pop\n      pop\n      jump\t// out\n        /* \"#utility.yul\":6216:6334   */\n    tag_70:\n        /* \"#utility.yul\":6303:6327   */\n      tag_155\n        /* \"#utility.yul\":6321:6326   */\n      dup2\n        /* \"#utility.yul\":6303:6327   */\n      tag_55\n      jump\t// in\n    tag_155:\n        /* \"#utility.yul\":6298:6301   */\n      dup3\n        /* \"#utility.yul\":6291:6328   */\n      mstore\n        /* \"#utility.yul\":6216:6334   */\n      pop\n      pop\n      jump\t// out\n        /* \"#utility.yul\":6340:6458   */\n    tag_71:\n        /* \"#utility.yul\":6427:6451   */\n      tag_157\n        /* \"#utility.yul\":6445:6450   */\n      dup2\n        /* \"#utility.yul\":6427:6451   */\n      tag_58\n      jump\t// in\n    tag_157:\n        /* \"#utility.yul\":6422:6425   */\n      dup3\n        /* \"#utility.yul\":6415:6452   */\n      mstore\n        /* \"#utility.yul\":6340:6458   */\n      pop\n      pop\n      jump\t// out\n        /* \"#utility.yul\":6464:6796   */\n    tag_35:\n        /* \"#utility.yul\":6585:6589   */\n      0x00\n        /* \"#utility.yul\":6623:6625   */\n      0x40\n        /* \"#utility.yul\":6612:6621   */\n      dup3\n        /* \"#utility.yul\":6608:6626   */\n      add\n        /* \"#utility.yul\":6600:6626   */\n      swap1\n      pop\n        /* \"#utility.yul\":6636:6707   */\n      tag_159\n        /* \"#utility.yul\":6704:6705   */\n      0x00\n        /* \"#utility.yul\":6693:6702   */\n      dup4\n        /* \"#utility.yul\":6689:6706   */\n      add\n        /* \"#utility.yul\":6680:6686   */\n      dup6\n        /* \"#utility.yul\":6636:6707   */\n      tag_70\n      jump\t// in\n    tag_159:\n        /* \"#utility.yul\":6717:6789   */\n      tag_160\n        /* \"#utility.yul\":6785:6787   */\n      0x20\n        /* \"#utility.yul\":6774:6783   */\n      dup4\n        /* \"#utility.yul\":6770:6788   */\n      add\n        /* \"#utility.yul\":6761:6767   */\n      dup5\n        /* \"#utility.yul\":6717:6789   */\n      tag_71\n      jump\t// in\n    tag_160:\n        /* \"#utility.yul\":6464:6796   */\n      swap4\n      swap3\n      pop\n      pop\n      pop\n      jump\t// out\n        /* \"#utility.yul\":6802:6918   */\n    tag_72:\n        /* \"#utility.yul\":6872:6893   */\n      tag_162\n        /* \"#utility.yul\":6887:6892   */\n      dup2\n        /* \"#utility.yul\":6872:6893   */\n      tag_65\n      jump\t// in\n    tag_162:\n        /* \"#utility.yul\":6865:6870   */\n      dup2\n        /* \"#utility.yul\":6862:6894   */\n      eq\n        /* \"#utility.yul\":6852:6912   */\n      tag_163\n      jumpi\n        /* \"#utility.yul\":6908:6909   */\n      0x00\n        /* \"#utility.yul\":6905:6906   */\n      dup1\n        /* \"#utility.yul\":6898:6910   */\n      revert\n        /* \"#utility.yul\":6852:6912   */\n    tag_163:\n        /* \"#utility.yul\":6802:6918   */\n      pop\n      jump\t// out\n        /* \"#utility.yul\":6924:7061   */\n    tag_73:\n        /* \"#utility.yul\":6978:6983   */\n      0x00\n        /* \"#utility.yul\":7009:7015   */\n      dup2\n        /* \"#utility.yul\":7003:7016   */\n      mload\n        /* \"#utility.yul\":6994:7016   */\n      swap1\n      pop\n        /* \"#utility.yul\":7025:7055   */\n      tag_165\n        /* \"#utility.yul\":7049:7054   */\n      dup2\n        /* \"#utility.yul\":7025:7055   */\n      tag_72\n      jump\t// in\n    tag_165:\n        /* \"#utility.yul\":6924:7061   */\n      swap3\n      swap2\n      pop\n      pop\n      jump\t// out\n        /* \"#utility.yul\":7067:7412   */\n    tag_39:\n        /* \"#utility.yul\":7134:7140   */\n      0x00\n        /* \"#utility.yul\":7183:7185   */\n      0x20\n        /* \"#utility.yul\":7171:7180   */\n      dup3\n        /* \"#utility.yul\":7162:7169   */\n      dup5\n        /* \"#utility.yul\":7158:7181   */\n      sub\n        /* \"#utility.yul\":7154:7186   */\n      slt\n        /* \"#utility.yul\":7151:7270   */\n      iszero\n      tag_167\n      jumpi\n        /* \"#utility.yul\":7189:7268   */\n      tag_168\n      tag_53\n      jump\t// in\n    tag_168:\n        /* \"#utility.yul\":7151:7270   */\n    tag_167:\n        /* \"#utility.yul\":7309:7310   */\n      0x00\n        /* \"#utility.yul\":7334:7395   */\n      tag_169\n        /* \"#utility.yul\":7387:7394   */\n      dup5\n        /* \"#utility.yul\":7378:7384   */\n      dup3\n        /* \"#utility.yul\":7367:7376   */\n      dup6\n        /* \"#utility.yul\":7363:7385   */\n      add\n        /* \"#utility.yul\":7334:7395   */\n      tag_73\n      jump\t// in\n    tag_169:\n        /* \"#utility.yul\":7324:7395   */\n      swap2\n      pop\n        /* \"#utility.yul\":7280:7405   */\n      pop\n        /* \"#utility.yul\":7067:7412   */\n      swap3\n      swap2\n      pop\n      pop\n      jump\t// out\n        /* \"#utility.yul\":7418:7516   */\n    tag_74:\n        /* \"#utility.yul\":7469:7475   */\n      0x00\n        /* \"#utility.yul\":7503:7508   */\n      dup2\n        /* \"#utility.yul\":7497:7509   */\n      mload\n        /* \"#utility.yul\":7487:7509   */\n      swap1\n      pop\n        /* \"#utility.yul\":7418:7516   */\n      swap2\n      swap1\n      pop\n      jump\t// out\n        /* \"#utility.yul\":7522:7690   */\n    tag_75:\n        /* \"#utility.yul\":7605:7616   */\n      0x00\n        /* \"#utility.yul\":7639:7645   */\n      dup3\n        /* \"#utility.yul\":7634:7637   */\n      dup3\n        /* \"#utility.yul\":7627:7646   */\n      mstore\n        /* \"#utility.yul\":7679:7683   */\n      0x20\n        /* \"#utility.yul\":7674:7677   */\n      dup3\n        /* \"#utility.yul\":7670:7684   */\n      add\n        /* \"#utility.yul\":7655:7684   */\n      swap1\n      pop\n        /* \"#utility.yul\":7522:7690   */\n      swap3\n      swap2\n      pop\n      pop\n      jump\t// out\n        /* \"#utility.yul\":7696:8003   */\n    tag_76:\n        /* \"#utility.yul\":7764:7765   */\n      0x00\n        /* \"#utility.yul\":7774:7887   */\n    tag_173:\n        /* \"#utility.yul\":7788:7794   */\n      dup4\n        /* \"#utility.yul\":7785:7786   */\n      dup2\n        /* \"#utility.yul\":7782:7795   */\n      lt\n        /* \"#utility.yul\":7774:7887   */\n      iszero\n      tag_175\n      jumpi\n        /* \"#utility.yul\":7873:7874   */\n      dup1\n        /* \"#utility.yul\":7868:7871   */\n      dup3\n        /* \"#utility.yul\":7864:7875   */\n      add\n        /* \"#utility.yul\":7858:7876   */\n      mload\n        /* \"#utility.yul\":7854:7855   */\n      dup2\n        /* \"#utility.yul\":7849:7852   */\n      dup5\n        /* \"#utility.yul\":7845:7856   */\n      add\n        /* \"#utility.yul\":7838:7877   */\n      mstore\n        /* \"#utility.yul\":7810:7812   */\n      0x20\n        /* \"#utility.yul\":7807:7808   */\n      dup2\n        /* \"#utility.yul\":7803:7813   */\n      add\n        /* \"#utility.yul\":7798:7813   */\n      swap1\n      pop\n        /* \"#utility.yul\":7774:7887   */\n      jump(tag_173)\n    tag_175:\n        /* \"#utility.yul\":7905:7911   */\n      dup4\n        /* \"#utility.yul\":7902:7903   */\n      dup2\n        /* \"#utility.yul\":7899:7912   */\n      gt\n        /* \"#utility.yul\":7896:7997   */\n      iszero\n      tag_176\n      jumpi\n        /* \"#utility.yul\":7985:7986   */\n      0x00\n        /* \"#utility.yul\":7976:7982   */\n      dup5\n        /* \"#utility.yul\":7971:7974   */\n      dup5\n        /* \"#utility.yul\":7967:7983   */\n      add\n        /* \"#utility.yul\":7960:7987   */\n      mstore\n        /* \"#utility.yul\":7896:7997   */\n    tag_176:\n        /* \"#utility.yul\":7745:8003   */\n      pop\n        /* \"#utility.yul\":7696:8003   */\n      pop\n      pop\n      pop\n      jump\t// out\n        /* \"#utility.yul\":8009:8111   */\n    tag_77:\n        /* \"#utility.yul\":8050:8056   */\n      0x00\n        /* \"#utility.yul\":8101:8103   */\n      0x1f\n        /* \"#utility.yul\":8097:8104   */\n      not\n        /* \"#utility.yul\":8092:8094   */\n      0x1f\n        /* \"#utility.yul\":8085:8090   */\n      dup4\n        /* \"#utility.yul\":8081:8095   */\n      add\n        /* \"#utility.yul\":8077:8105   */\n      and\n        /* \"#utility.yul\":8067:8105   */\n      swap1\n      pop\n        /* \"#utility.yul\":8009:8111   */\n      swap2\n      swap1\n      pop\n      jump\t// out\n        /* \"#utility.yul\":8117:8477   */\n    tag_78:\n        /* \"#utility.yul\":8203:8206   */\n      0x00\n        /* \"#utility.yul\":8231:8269   */\n      tag_179\n        /* \"#utility.yul\":8263:8268   */\n      dup3\n        /* \"#utility.yul\":8231:8269   */\n      tag_74\n      jump\t// in\n    tag_179:\n        /* \"#utility.yul\":8285:8355   */\n      tag_180\n        /* \"#utility.yul\":8348:8354   */\n      dup2\n        /* \"#utility.yul\":8343:8346   */\n      dup6\n        /* \"#utility.yul\":8285:8355   */\n      tag_75\n      jump\t// in\n    tag_180:\n        /* \"#utility.yul\":8278:8355   */\n      swap4\n      pop\n        /* \"#utility.yul\":8364:8416   */\n      tag_181\n        /* \"#utility.yul\":8409:8415   */\n      dup2\n        /* \"#utility.yul\":8404:8407   */\n      dup6\n        /* \"#utility.yul\":8397:8401   */\n      0x20\n        /* \"#utility.yul\":8390:8395   */\n      dup7\n        /* \"#utility.yul\":8386:8402   */\n      add\n        /* \"#utility.yul\":8364:8416   */\n      tag_76\n      jump\t// in\n    tag_181:\n        /* \"#utility.yul\":8441:8470   */\n      tag_182\n        /* \"#utility.yul\":8463:8469   */\n      dup2\n        /* \"#utility.yul\":8441:8470   */\n      tag_77\n      jump\t// in\n    tag_182:\n        /* \"#utility.yul\":8436:8439   */\n      dup5\n        /* \"#utility.yul\":8432:8471   */\n      add\n        /* \"#utility.yul\":8425:8471   */\n      swap2\n      pop\n        /* \"#utility.yul\":8207:8477   */\n      pop\n        /* \"#utility.yul\":8117:8477   */\n      swap3\n      swap2\n      pop\n      pop\n      jump\t// out\n        /* \"#utility.yul\":8483:8572   */\n    tag_79:\n        /* \"#utility.yul\":8519:8526   */\n      0x00\n        /* \"#utility.yul\":8559:8565   */\n      0xffff\n        /* \"#utility.yul\":8552:8557   */\n      dup3\n        /* \"#utility.yul\":8548:8566   */\n      and\n        /* \"#utility.yul\":8537:8566   */\n      swap1\n      pop\n        /* \"#utility.yul\":8483:8572   */\n      swap2\n      swap1\n      pop\n      jump\t// out\n        /* \"#utility.yul\":8578:8693   */\n    tag_80:\n        /* \"#utility.yul\":8663:8686   */\n      tag_185\n        /* \"#utility.yul\":8680:8685   */\n      dup2\n        /* \"#utility.yul\":8663:8686   */\n      tag_79\n      jump\t// in\n    tag_185:\n        /* \"#utility.yul\":8658:8661   */\n      dup3\n        /* \"#utility.yul\":8651:8687   */\n      mstore\n        /* \"#utility.yul\":8578:8693   */\n      pop\n      pop\n      jump\t// out\n        /* \"#utility.yul\":8699:9446   */\n    tag_42:\n        /* \"#utility.yul\":8920:8924   */\n      0x00\n        /* \"#utility.yul\":8958:8961   */\n      0xa0\n        /* \"#utility.yul\":8947:8956   */\n      dup3\n        /* \"#utility.yul\":8943:8962   */\n      add\n        /* \"#utility.yul\":8935:8962   */\n      swap1\n      pop\n        /* \"#utility.yul\":8972:9043   */\n      tag_187\n        /* \"#utility.yul\":9040:9041   */\n      0x00\n        /* \"#utility.yul\":9029:9038   */\n      dup4\n        /* \"#utility.yul\":9025:9042   */\n      add\n        /* \"#utility.yul\":9016:9022   */\n      dup9\n        /* \"#utility.yul\":8972:9043   */\n      tag_70\n      jump\t// in\n    tag_187:\n        /* \"#utility.yul\":9053:9125   */\n      tag_188\n        /* \"#utility.yul\":9121:9123   */\n      0x20\n        /* \"#utility.yul\":9110:9119   */\n      dup4\n        /* \"#utility.yul\":9106:9124   */\n      add\n        /* \"#utility.yul\":9097:9103   */\n      dup8\n        /* \"#utility.yul\":9053:9125   */\n      tag_70\n      jump\t// in\n    tag_188:\n        /* \"#utility.yul\":9135:9207   */\n      tag_189\n        /* \"#utility.yul\":9203:9205   */\n      0x40\n        /* \"#utility.yul\":9192:9201   */\n      dup4\n        /* \"#utility.yul\":9188:9206   */\n      add\n        /* \"#utility.yul\":9179:9185   */\n      dup7\n        /* \"#utility.yul\":9135:9207   */\n      tag_71\n      jump\t// in\n    tag_189:\n        /* \"#utility.yul\":9254:9263   */\n      dup2\n        /* \"#utility.yul\":9248:9252   */\n      dup2\n        /* \"#utility.yul\":9244:9264   */\n      sub\n        /* \"#utility.yul\":9239:9241   */\n      0x60\n        /* \"#utility.yul\":9228:9237   */\n      dup4\n        /* \"#utility.yul\":9224:9242   */\n      add\n        /* \"#utility.yul\":9217:9265   */\n      mstore\n        /* \"#utility.yul\":9282:9358   */\n      tag_190\n        /* \"#utility.yul\":9353:9357   */\n      dup2\n        /* \"#utility.yul\":9344:9350   */\n      dup6\n        /* \"#utility.yul\":9282:9358   */\n      tag_78\n      jump\t// in\n    tag_190:\n        /* \"#utility.yul\":9274:9358   */\n      swap1\n      pop\n        /* \"#utility.yul\":9368:9439   */\n      tag_191\n        /* \"#utility.yul\":9434:9437   */\n      0x80\n        /* \"#utility.yul\":9423:9432   */\n      dup4\n        /* \"#utility.yul\":9419:9438   */\n      add\n        /* \"#utility.yul\":9410:9416   */\n      dup5\n        /* \"#utility.yul\":9368:9439   */\n      tag_80\n      jump\t// in\n    tag_191:\n        /* \"#utility.yul\":8699:9446   */\n      swap7\n      swap6\n      pop\n      pop\n      pop\n      pop\n      pop\n      pop\n      jump\t// out\n\n    auxdata: 0xa26469706673582212204dc2a0775daabd554f3b637537d0a1936b7d881c240f9359d29e4a40f67b08a664736f6c634300080a0033\n}\n",
				"bytecode": {
					"linkReferences": {},
					"object": "60c060405234801561001057600080fd5b506040516109da3803806109da83398181016040528101906100329190610173565b808073ffffffffffffffffffffffffffffffffffffffff1660808173ffffffffffffffffffffffffffffffffffffffff16815250508073ffffffffffffffffffffffffffffffffffffffff1663026b1d5f6040518163ffffffff1660e01b8152600401602060405180830381865afa1580156100b2573d6000803e3d6000fd5b505050506040513d601f19601f820116820180604052508101906100d69190610173565b73ffffffffffffffffffffffffffffffffffffffff1660a08173ffffffffffffffffffffffffffffffffffffffff168152505050506101a0565b600080fd5b600073ffffffffffffffffffffffffffffffffffffffff82169050919050565b600061014082610115565b9050919050565b61015081610135565b811461015b57600080fd5b50565b60008151905061016d81610147565b92915050565b60006020828403121561018957610188610110565b5b60006101978482850161015e565b91505092915050565b60805160a0516108076101d36000396000818161015e015281816101f001526102390152600061010d01526108076000f3fe6080604052600436106100435760003560e01c80630542975c1461004f5780631b11d0ff1461007a5780637535d246146100b757806387c7f0ac146100e25761004a565b3661004a57005b600080fd5b34801561005b57600080fd5b5061006461010b565b6040516100719190610352565b60405180910390f35b34801561008657600080fd5b506100a1600480360381019061009c9190610450565b61012f565b6040516100ae9190610505565b60405180910390f35b3480156100c357600080fd5b506100cc6101ee565b6040516100d99190610541565b60405180910390f35b3480156100ee57600080fd5b506101096004803603810190610104919061055c565b610212565b005b7f000000000000000000000000000000000000000000000000000000000000000081565b600080858761013e91906105cb565b90508773ffffffffffffffffffffffffffffffffffffffff1663095ea7b37f0000000000000000000000000000000000000000000000000000000000000000836040518363ffffffff1660e01b815260040161019b92919061063f565b6020604051808303816000875af11580156101ba573d6000803e3d6000fd5b505050506040513d601f19601f820116820180604052508101906101de9190610694565b5060019150509695505050505050565b7f000000000000000000000000000000000000000000000000000000000000000081565b600030905060008390506000839050600060405180602001604052806000815250905060007f000000000000000000000000000000000000000000000000000000000000000073ffffffffffffffffffffffffffffffffffffffff166342b0b77c86868686866040518663ffffffff1660e01b8152600401610298959493929190610777565b600060405180830381600087803b1580156102b257600080fd5b505af11580156102c6573d6000803e3d6000fd5b5050505050505050505050565b600073ffffffffffffffffffffffffffffffffffffffff82169050919050565b6000819050919050565b600061031861031361030e846102d3565b6102f3565b6102d3565b9050919050565b600061032a826102fd565b9050919050565b600061033c8261031f565b9050919050565b61034c81610331565b82525050565b60006020820190506103676000830184610343565b92915050565b600080fd5b600080fd5b6000610382826102d3565b9050919050565b61039281610377565b811461039d57600080fd5b50565b6000813590506103af81610389565b92915050565b6000819050919050565b6103c8816103b5565b81146103d357600080fd5b50565b6000813590506103e5816103bf565b92915050565b600080fd5b600080fd5b600080fd5b60008083601f8401126104105761040f6103eb565b5b8235905067ffffffffffffffff81111561042d5761042c6103f0565b5b602083019150836001820283011115610449576104486103f5565b5b9250929050565b60008060008060008060a0878903121561046d5761046c61036d565b5b600061047b89828a016103a0565b965050602061048c89828a016103d6565b955050604061049d89828a016103d6565b94505060606104ae89828a016103a0565b935050608087013567ffffffffffffffff8111156104cf576104ce610372565b5b6104db89828a016103fa565b92509250509295509295509295565b60008115159050919050565b6104ff816104ea565b82525050565b600060208201905061051a60008301846104f6565b92915050565b600061052b8261031f565b9050919050565b61053b81610520565b82525050565b60006020820190506105566000830184610532565b92915050565b600080604083850312156105735761057261036d565b5b6000610581858286016103a0565b9250506020610592858286016103d6565b9150509250929050565b7f4e487b7100000000000000000000000000000000000000000000000000000000600052601160045260246000fd5b60006105d6826103b5565b91506105e1836103b5565b9250827fffffffffffffffffffffffffffffffffffffffffffffffffffffffffffffffff038211156106165761061561059c565b5b828201905092915050565b61062a81610377565b82525050565b610639816103b5565b82525050565b60006040820190506106546000830185610621565b6106616020830184610630565b9392505050565b610671816104ea565b811461067c57600080fd5b50565b60008151905061068e81610668565b92915050565b6000602082840312156106aa576106a961036d565b5b60006106b88482850161067f565b91505092915050565b600081519050919050565b600082825260208201905092915050565b60005b838110156106fb5780820151818401526020810190506106e0565b8381111561070a576000848401525b50505050565b6000601f19601f8301169050919050565b600061072c826106c1565b61073681856106cc565b93506107468185602086016106dd565b61074f81610710565b840191505092915050565b600061ffff82169050919050565b6107718161075a565b82525050565b600060a08201905061078c6000830188610621565b6107996020830187610621565b6107a66040830186610630565b81810360608301526107b88185610721565b90506107c76080830184610768565b969550505050505056fea26469706673582212204dc2a0775daabd554f3b637537d0a1936b7d881c240f9359d29e4a40f67b08a664736f6c634300080a0033",
					"opcodes": "PUSH1 0xC0 PUSH1 0x40 MSTORE CALLVALUE DUP1 ISZERO PUSH2 0x10 JUMPI PUSH1 0x0 DUP1 REVERT JUMPDEST POP PUSH1 0x40 MLOAD PUSH2 0x9DA CODESIZE SUB DUP1 PUSH2 0x9DA DUP4 CODECOPY DUP2 DUP2 ADD PUSH1 0x40 MSTORE DUP2 ADD SWAP1 PUSH2 0x32 SWAP2 SWAP1 PUSH2 0x173 JUMP JUMPDEST DUP1 DUP1 PUSH20 0xFFFFFFFFFFFFFFFFFFFFFFFFFFFFFFFFFFFFFFFF AND PUSH1 0x80 DUP2 PUSH20 0xFFFFFFFFFFFFFFFFFFFFFFFFFFFFFFFFFFFFFFFF AND DUP2 MSTORE POP POP DUP1 PUSH20 0xFFFFFFFFFFFFFFFFFFFFFFFFFFFFFFFFFFFFFFFF AND PUSH4 0x26B1D5F PUSH1 0x40 MLOAD DUP2 PUSH4 0xFFFFFFFF AND PUSH1 0xE0 SHL DUP2 MSTORE PUSH1 0x4 ADD PUSH1 0x20 PUSH1 0x40 MLOAD DUP1 DUP4 SUB DUP2 DUP7 GAS STATICCALL ISZERO DUP1 ISZERO PUSH2 0xB2 JUMPI RETURNDATASIZE PUSH1 0x0 DUP1 RETURNDATACOPY RETURNDATASIZE PUSH1 0x0 REVERT JUMPDEST POP POP POP POP PUSH1 0x40 MLOAD RETURNDATASIZE PUSH1 0x1F NOT PUSH1 0x1F DUP3 ADD AND DUP3 ADD DUP1 PUSH1 0x40 MSTORE POP DUP2 ADD SWAP1 PUSH2 0xD6 SWAP2 SWAP1 PUSH2 0x173 JUMP JUMPDEST PUSH20 0xFFFFFFFFFFFFFFFFFFFFFFFFFFFFFFFFFFFFFFFF AND PUSH1 0xA0 DUP2 PUSH20 0xFFFFFFFFFFFFFFFFFFFFFFFFFFFFFFFFFFFFFFFF AND DUP2 MSTORE POP POP POP POP PUSH2 0x1A0 JUMP JUMPDEST PUSH1 0x0 DUP1 REVERT JUMPDEST PUSH1 0x0 PUSH20 0xFFFFFFFFFFFFFFFFFFFFFFFFFFFFFFFFFFFFFFFF DUP3 AND SWAP1 POP SWAP2 SWAP1 POP JUMP JUMPDEST PUSH1 0x0 PUSH2 0x140 DUP3 PUSH2 0x115 JUMP JUMPDEST SWAP1 POP SWAP2 SWAP1 POP JUMP JUMPDEST PUSH2 0x150 DUP2 PUSH2 0x135 JUMP JUMPDEST DUP2 EQ PUSH2 0x15B JUMPI PUSH1 0x0 DUP1 REVERT JUMPDEST POP JUMP JUMPDEST PUSH1 0x0 DUP2 MLOAD SWAP1 POP PUSH2 0x16D DUP2 PUSH2 0x147 JUMP JUMPDEST SWAP3 SWAP2 POP POP JUMP JUMPDEST PUSH1 0x0 PUSH1 0x20 DUP3 DUP5 SUB SLT ISZERO PUSH2 0x189 JUMPI PUSH2 0x188 PUSH2 0x110 JUMP JUMPDEST JUMPDEST PUSH1 0x0 PUSH2 0x197 DUP5 DUP3 DUP6 ADD PUSH2 0x15E JUMP JUMPDEST SWAP2 POP POP SWAP3 SWAP2 POP POP JUMP JUMPDEST PUSH1 0x80 MLOAD PUSH1 0xA0 MLOAD PUSH2 0x807 PUSH2 0x1D3 PUSH1 0x0 CODECOPY PUSH1 0x0 DUP2 DUP2 PUSH2 0x15E ADD MSTORE DUP2 DUP2 PUSH2 0x1F0 ADD MSTORE PUSH2 0x239 ADD MSTORE PUSH1 0x0 PUSH2 0x10D ADD MSTORE PUSH2 0x807 PUSH1 0x0 RETURN INVALID PUSH1 0x80 PUSH1 0x40 MSTORE PUSH1 0x4 CALLDATASIZE LT PUSH2 0x43 JUMPI PUSH1 0x0 CALLDATALOAD PUSH1 0xE0 SHR DUP1 PUSH4 0x542975C EQ PUSH2 0x4F JUMPI DUP1 PUSH4 0x1B11D0FF EQ PUSH2 0x7A JUMPI DUP1 PUSH4 0x7535D246 EQ PUSH2 0xB7 JUMPI DUP1 PUSH4 0x87C7F0AC EQ PUSH2 0xE2 JUMPI PUSH2 0x4A JUMP JUMPDEST CALLDATASIZE PUSH2 0x4A JUMPI STOP JUMPDEST PUSH1 0x0 DUP1 REVERT JUMPDEST CALLVALUE DUP1 ISZERO PUSH2 0x5B JUMPI PUSH1 0x0 DUP1 REVERT JUMPDEST POP PUSH2 0x64 PUSH2 0x10B JUMP JUMPDEST PUSH1 0x40 MLOAD PUSH2 0x71 SWAP2 SWAP1 PUSH2 0x352 JUMP JUMPDEST PUSH1 0x40 MLOAD DUP1 SWAP2 SUB SWAP1 RETURN JUMPDEST CALLVALUE DUP1 ISZERO PUSH2 0x86 JUMPI PUSH1 0x0 DUP1 REVERT JUMPDEST POP PUSH2 0xA1 PUSH1 0x4 DUP1 CALLDATASIZE SUB DUP2 ADD SWAP1 PUSH2 0x9C SWAP2 SWAP1 PUSH2 0x450 JUMP JUMPDEST PUSH2 0x12F JUMP JUMPDEST PUSH1 0x40 MLOAD PUSH2 0xAE SWAP2 SWAP1 PUSH2 0x505 JUMP JUMPDEST PUSH1 0x40 MLOAD DUP1 SWAP2 SUB SWAP1 RETURN JUMPDEST CALLVALUE DUP1 ISZERO PUSH2 0xC3 JUMPI PUSH1 0x0 DUP1 REVERT JUMPDEST POP PUSH2 0xCC PUSH2 0x1EE JUMP JUMPDEST PUSH1 0x40 MLOAD PUSH2 0xD9 SWAP2 SWAP1 PUSH2 0x541 JUMP JUMPDEST PUSH1 0x40 MLOAD DUP1 SWAP2 SUB SWAP1 RETURN JUMPDEST CALLVALUE DUP1 ISZERO PUSH2 0xEE JUMPI PUSH1 0x0 DUP1 REVERT JUMPDEST POP PUSH2 0x109 PUSH1 0x4 DUP1 CALLDATASIZE SUB DUP2 ADD SWAP1 PUSH2 0x104 SWAP2 SWAP1 PUSH2 0x55C JUMP JUMPDEST PUSH2 0x212 JUMP JUMPDEST STOP JUMPDEST PUSH32 0x0 DUP2 JUMP JUMPDEST PUSH1 0x0 DUP1 DUP6 DUP8 PUSH2 0x13E SWAP2 SWAP1 PUSH2 0x5CB JUMP JUMPDEST SWAP1 POP DUP8 PUSH20 0xFFFFFFFFFFFFFFFFFFFFFFFFFFFFFFFFFFFFFFFF AND PUSH4 0x95EA7B3 PUSH32 0x0 DUP4 PUSH1 0x40 MLOAD DUP4 PUSH4 0xFFFFFFFF AND PUSH1 0xE0 SHL DUP2 MSTORE PUSH1 0x4 ADD PUSH2 0x19B SWAP3 SWAP2 SWAP1 PUSH2 0x63F JUMP JUMPDEST PUSH1 0x20 PUSH1 0x40 MLOAD DUP1 DUP4 SUB DUP2 PUSH1 0x0 DUP8 GAS CALL ISZERO DUP1 ISZERO PUSH2 0x1BA JUMPI RETURNDATASIZE PUSH1 0x0 DUP1 RETURNDATACOPY RETURNDATASIZE PUSH1 0x0 REVERT JUMPDEST POP POP POP POP PUSH1 0x40 MLOAD RETURNDATASIZE PUSH1 0x1F NOT PUSH1 0x1F DUP3 ADD AND DUP3 ADD DUP1 PUSH1 0x40 MSTORE POP DUP2 ADD SWAP1 PUSH2 0x1DE SWAP2 SWAP1 PUSH2 0x694 JUMP JUMPDEST POP PUSH1 0x1 SWAP2 POP POP SWAP7 SWAP6 POP POP POP POP POP POP JUMP JUMPDEST PUSH32 0x0 DUP2 JUMP JUMPDEST PUSH1 0x0 ADDRESS SWAP1 POP PUSH1 0x0 DUP4 SWAP1 POP PUSH1 0x0 DUP4 SWAP1 POP PUSH1 0x0 PUSH1 0x40 MLOAD DUP1 PUSH1 0x20 ADD PUSH1 0x40 MSTORE DUP1 PUSH1 0x0 DUP2 MSTORE POP SWAP1 POP PUSH1 0x0 PUSH32 0x0 PUSH20 0xFFFFFFFFFFFFFFFFFFFFFFFFFFFFFFFFFFFFFFFF AND PUSH4 0x42B0B77C DUP7 DUP7 DUP7 DUP7 DUP7 PUSH1 0x40 MLOAD DUP7 PUSH4 0xFFFFFFFF AND PUSH1 0xE0 SHL DUP2 MSTORE PUSH1 0x4 ADD PUSH2 0x298 SWAP6 SWAP5 SWAP4 SWAP3 SWAP2 SWAP1 PUSH2 0x777 JUMP JUMPDEST PUSH1 0x0 PUSH1 0x40 MLOAD DUP1 DUP4 SUB DUP2 PUSH1 0x0 DUP8 DUP1 EXTCODESIZE ISZERO DUP1 ISZERO PUSH2 0x2B2 JUMPI PUSH1 0x0 DUP1 REVERT JUMPDEST POP GAS CALL ISZERO DUP1 ISZERO PUSH2 0x2C6 JUMPI RETURNDATASIZE PUSH1 0x0 DUP1 RETURNDATACOPY RETURNDATASIZE PUSH1 0x0 REVERT JUMPDEST POP POP POP POP POP POP POP POP POP POP POP JUMP JUMPDEST PUSH1 0x0 PUSH20 0xFFFFFFFFFFFFFFFFFFFFFFFFFFFFFFFFFFFFFFFF DUP3 AND SWAP1 POP SWAP2 SWAP1 POP JUMP JUMPDEST PUSH1 0x0 DUP2 SWAP1 POP SWAP2 SWAP1 POP JUMP JUMPDEST PUSH1 0x0 PUSH2 0x318 PUSH2 0x313 PUSH2 0x30E DUP5 PUSH2 0x2D3 JUMP JUMPDEST PUSH2 0x2F3 JUMP JUMPDEST PUSH2 0x2D3 JUMP JUMPDEST SWAP1 POP SWAP2 SWAP1 POP JUMP JUMPDEST PUSH1 0x0 PUSH2 0x32A DUP3 PUSH2 0x2FD JUMP JUMPDEST SWAP1 POP SWAP2 SWAP1 POP JUMP JUMPDEST PUSH1 0x0 PUSH2 0x33C DUP3 PUSH2 0x31F JUMP JUMPDEST SWAP1 POP SWAP2 SWAP1 POP JUMP JUMPDEST PUSH2 0x34C DUP2 PUSH2 0x331 JUMP JUMPDEST DUP3 MSTORE POP POP JUMP JUMPDEST PUSH1 0x0 PUSH1 0x20 DUP3 ADD SWAP1 POP PUSH2 0x367 PUSH1 0x0 DUP4 ADD DUP5 PUSH2 0x343 JUMP JUMPDEST SWAP3 SWAP2 POP POP JUMP JUMPDEST PUSH1 0x0 DUP1 REVERT JUMPDEST PUSH1 0x0 DUP1 REVERT JUMPDEST PUSH1 0x0 PUSH2 0x382 DUP3 PUSH2 0x2D3 JUMP JUMPDEST SWAP1 POP SWAP2 SWAP1 POP JUMP JUMPDEST PUSH2 0x392 DUP2 PUSH2 0x377 JUMP JUMPDEST DUP2 EQ PUSH2 0x39D JUMPI PUSH1 0x0 DUP1 REVERT JUMPDEST POP JUMP JUMPDEST PUSH1 0x0 DUP2 CALLDATALOAD SWAP1 POP PUSH2 0x3AF DUP2 PUSH2 0x389 JUMP JUMPDEST SWAP3 SWAP2 POP POP JUMP JUMPDEST PUSH1 0x0 DUP2 SWAP1 POP SWAP2 SWAP1 POP JUMP JUMPDEST PUSH2 0x3C8 DUP2 PUSH2 0x3B5 JUMP JUMPDEST DUP2 EQ PUSH2 0x3D3 JUMPI PUSH1 0x0 DUP1 REVERT JUMPDEST POP JUMP JUMPDEST PUSH1 0x0 DUP2 CALLDATALOAD SWAP1 POP PUSH2 0x3E5 DUP2 PUSH2 0x3BF JUMP JUMPDEST SWAP3 SWAP2 POP POP JUMP JUMPDEST PUSH1 0x0 DUP1 REVERT JUMPDEST PUSH1 0x0 DUP1 REVERT JUMPDEST PUSH1 0x0 DUP1 REVERT JUMPDEST PUSH1 0x0 DUP1 DUP4 PUSH1 0x1F DUP5 ADD SLT PUSH2 0x410 JUMPI PUSH2 0x40F PUSH2 0x3EB JUMP JUMPDEST JUMPDEST DUP3 CALLDATALOAD SWAP1 POP PUSH8 0xFFFFFFFFFFFFFFFF DUP2 GT ISZERO PUSH2 0x42D JUMPI PUSH2 0x42C PUSH2 0x3F0 JUMP JUMPDEST JUMPDEST PUSH1 0x20 DUP4 ADD SWAP2 POP DUP4 PUSH1 0x1 DUP3 MUL DUP4 ADD GT ISZERO PUSH2 0x449 JUMPI PUSH2 0x448 PUSH2 0x3F5 JUMP JUMPDEST JUMPDEST SWAP3 POP SWAP3 SWAP1 POP JUMP JUMPDEST PUSH1 0x0 DUP1 PUSH1 0x0 DUP1 PUSH1 0x0 DUP1 PUSH1 0xA0 DUP8 DUP10 SUB SLT ISZERO PUSH2 0x46D JUMPI PUSH2 0x46C PUSH2 0x36D JUMP JUMPDEST JUMPDEST PUSH1 0x0 PUSH2 0x47B DUP10 DUP3 DUP11 ADD PUSH2 0x3A0 JUMP JUMPDEST SWAP7 POP POP PUSH1 0x20 PUSH2 0x48C DUP10 DUP3 DUP11 ADD PUSH2 0x3D6 JUMP JUMPDEST SWAP6 POP POP PUSH1 0x40 PUSH2 0x49D DUP10 DUP3 DUP11 ADD PUSH2 0x3D6 JUMP JUMPDEST SWAP5 POP POP PUSH1 0x60 PUSH2 0x4AE DUP10 DUP3 DUP11 ADD PUSH2 0x3A0 JUMP JUMPDEST SWAP4 POP POP PUSH1 0x80 DUP8 ADD CALLDATALOAD PUSH8 0xFFFFFFFFFFFFFFFF DUP2 GT ISZERO PUSH2 0x4CF JUMPI PUSH2 0x4CE PUSH2 0x372 JUMP JUMPDEST JUMPDEST PUSH2 0x4DB DUP10 DUP3 DUP11 ADD PUSH2 0x3FA JUMP JUMPDEST SWAP3 POP SWAP3 POP POP SWAP3 SWAP6 POP SWAP3 SWAP6 POP SWAP3 SWAP6 JUMP JUMPDEST PUSH1 0x0 DUP2 ISZERO ISZERO SWAP1 POP SWAP2 SWAP1 POP JUMP JUMPDEST PUSH2 0x4FF DUP2 PUSH2 0x4EA JUMP JUMPDEST DUP3 MSTORE POP POP JUMP JUMPDEST PUSH1 0x0 PUSH1 0x20 DUP3 ADD SWAP1 POP PUSH2 0x51A PUSH1 0x0 DUP4 ADD DUP5 PUSH2 0x4F6 JUMP JUMPDEST SWAP3 SWAP2 POP POP JUMP JUMPDEST PUSH1 0x0 PUSH2 0x52B DUP3 PUSH2 0x31F JUMP JUMPDEST SWAP1 POP SWAP2 SWAP1 POP JUMP JUMPDEST PUSH2 0x53B DUP2 PUSH2 0x520 JUMP JUMPDEST DUP3 MSTORE POP POP JUMP JUMPDEST PUSH1 0x0 PUSH1 0x20 DUP3 ADD SWAP1 POP PUSH2 0x556 PUSH1 0x0 DUP4 ADD DUP5 PUSH2 0x532 JUMP JUMPDEST SWAP3 SWAP2 POP POP JUMP JUMPDEST PUSH1 0x0 DUP1 PUSH1 0x40 DUP4 DUP6 SUB SLT ISZERO PUSH2 0x573 JUMPI PUSH2 0x572 PUSH2 0x36D JUMP JUMPDEST JUMPDEST PUSH1 0x0 PUSH2 0x581 DUP6 DUP3 DUP7 ADD PUSH2 0x3A0 JUMP JUMPDEST SWAP3 POP POP PUSH1 0x20 PUSH2 0x592 DUP6 DUP3 DUP7 ADD PUSH2 0x3D6 JUMP JUMPDEST SWAP2 POP POP SWAP3 POP SWAP3 SWAP1 POP JUMP JUMPDEST PUSH32 0x4E487B7100000000000000000000000000000000000000000000000000000000 PUSH1 0x0 MSTORE PUSH1 0x11 PUSH1 0x4 MSTORE PUSH1 0x24 PUSH1 0x0 REVERT JUMPDEST PUSH1 0x0 PUSH2 0x5D6 DUP3 PUSH2 0x3B5 JUMP JUMPDEST SWAP2 POP PUSH2 0x5E1 DUP4 PUSH2 0x3B5 JUMP JUMPDEST SWAP3 POP DUP3 PUSH32 0xFFFFFFFFFFFFFFFFFFFFFFFFFFFFFFFFFFFFFFFFFFFFFFFFFFFFFFFFFFFFFFFF SUB DUP3 GT ISZERO PUSH2 0x616 JUMPI PUSH2 0x615 PUSH2 0x59C JUMP JUMPDEST JUMPDEST DUP3 DUP3 ADD SWAP1 POP SWAP3 SWAP2 POP POP JUMP JUMPDEST PUSH2 0x62A DUP2 PUSH2 0x377 JUMP JUMPDEST DUP3 MSTORE POP POP JUMP JUMPDEST PUSH2 0x639 DUP2 PUSH2 0x3B5 JUMP JUMPDEST DUP3 MSTORE POP POP JUMP JUMPDEST PUSH1 0x0 PUSH1 0x40 DUP3 ADD SWAP1 POP PUSH2 0x654 PUSH1 0x0 DUP4 ADD DUP6 PUSH2 0x621 JUMP JUMPDEST PUSH2 0x661 PUSH1 0x20 DUP4 ADD DUP5 PUSH2 0x630 JUMP JUMPDEST SWAP4 SWAP3 POP POP POP JUMP JUMPDEST PUSH2 0x671 DUP2 PUSH2 0x4EA JUMP JUMPDEST DUP2 EQ PUSH2 0x67C JUMPI PUSH1 0x0 DUP1 REVERT JUMPDEST POP JUMP JUMPDEST PUSH1 0x0 DUP2 MLOAD SWAP1 POP PUSH2 0x68E DUP2 PUSH2 0x668 JUMP JUMPDEST SWAP3 SWAP2 POP POP JUMP JUMPDEST PUSH1 0x0 PUSH1 0x20 DUP3 DUP5 SUB SLT ISZERO PUSH2 0x6AA JUMPI PUSH2 0x6A9 PUSH2 0x36D JUMP JUMPDEST JUMPDEST PUSH1 0x0 PUSH2 0x6B8 DUP5 DUP3 DUP6 ADD PUSH2 0x67F JUMP JUMPDEST SWAP2 POP POP SWAP3 SWAP2 POP POP JUMP JUMPDEST PUSH1 0x0 DUP2 MLOAD SWAP1 POP SWAP2 SWAP1 POP JUMP JUMPDEST PUSH1 0x0 DUP3 DUP3 MSTORE PUSH1 0x20 DUP3 ADD SWAP1 POP SWAP3 SWAP2 POP POP JUMP JUMPDEST PUSH1 0x0 JUMPDEST DUP4 DUP2 LT ISZERO PUSH2 0x6FB JUMPI DUP1 DUP3 ADD MLOAD DUP2 DUP5 ADD MSTORE PUSH1 0x20 DUP2 ADD SWAP1 POP PUSH2 0x6E0 JUMP JUMPDEST DUP4 DUP2 GT ISZERO PUSH2 0x70A JUMPI PUSH1 0x0 DUP5 DUP5 ADD MSTORE JUMPDEST POP POP POP POP JUMP JUMPDEST PUSH1 0x0 PUSH1 0x1F NOT PUSH1 0x1F DUP4 ADD AND SWAP1 POP SWAP2 SWAP1 POP JUMP JUMPDEST PUSH1 0x0 PUSH2 0x72C DUP3 PUSH2 0x6C1 JUMP JUMPDEST PUSH2 0x736 DUP2 DUP6 PUSH2 0x6CC JUMP JUMPDEST SWAP4 POP PUSH2 0x746 DUP2 DUP6 PUSH1 0x20 DUP7 ADD PUSH2 0x6DD JUMP JUMPDEST PUSH2 0x74F DUP2 PUSH2 0x710 JUMP JUMPDEST DUP5 ADD SWAP2 POP POP SWAP3 SWAP2 POP POP JUMP JUMPDEST PUSH1 0x0 PUSH2 0xFFFF DUP3 AND SWAP1 POP SWAP2 SWAP1 POP JUMP JUMPDEST PUSH2 0x771 DUP2 PUSH2 0x75A JUMP JUMPDEST DUP3 MSTORE POP POP JUMP JUMPDEST PUSH1 0x0 PUSH1 0xA0 DUP3 ADD SWAP1 POP PUSH2 0x78C PUSH1 0x0 DUP4 ADD DUP9 PUSH2 0x621 JUMP JUMPDEST PUSH2 0x799 PUSH1 0x20 DUP4 ADD DUP8 PUSH2 0x621 JUMP JUMPDEST PUSH2 0x7A6 PUSH1 0x40 DUP4 ADD DUP7 PUSH2 0x630 JUMP JUMPDEST DUP2 DUP2 SUB PUSH1 0x60 DUP4 ADD MSTORE PUSH2 0x7B8 DUP2 DUP6 PUSH2 0x721 JUMP JUMPDEST SWAP1 POP PUSH2 0x7C7 PUSH1 0x80 DUP4 ADD DUP5 PUSH2 0x768 JUMP JUMPDEST SWAP7 SWAP6 POP POP POP POP POP POP JUMP INVALID LOG2 PUSH5 0x6970667358 0x22 SLT KECCAK256 0x4D 0xC2 LOG0 PUSH24 0x5DAABD554F3B637537D0A1936B7D881C240F9359D29E4A40 0xF6 PUSH28 0x8A664736F6C634300080A0033000000000000000000000000000000 "
				},
				"gasEstimates": {
					"creation": {
						"codeDepositCost": "411000",
						"executionCost": "infinite",
						"totalCost": "infinite"
					},
					"external": {
						"ADDRESSES_PROVIDER()": "infinite",
						"POOL()": "infinite",
						"executeOperation(address,uint256,uint256,address,bytes)": "infinite",
						"fn_RequestFlashLoan(address,uint256)": "infinite"
					}
				},
				"methodIdentifiers": {
					"ADDRESSES_PROVIDER()": "0542975c",
					"POOL()": "7535d246",
					"executeOperation(address,uint256,uint256,address,bytes)": "1b11d0ff",
					"fn_RequestFlashLoan(address,uint256)": "87c7f0ac"
				}
			},
			"storageLayout": {
				"storage": [
					{
						"astId": 8,
						"contract": "SimpleFlashLoan.sol:SimpleFlashLoan",
						"label": "owner",
						"offset": 0,
						"slot": "0",
						"type": "t_address_payable"
					}
				],
				"types": {
					"t_address_payable": {
						"encoding": "inplace",
						"label": "address payable",
						"numberOfBytes": "20"
					}
				}
			},
			"userdoc": {
				"kind": "user",
				"methods": {
					"executeOperation(address,uint256,uint256,address,bytes)": {
						"notice": "This function is called after your contract has received the flash loaned amount"
					}
				},
				"version": 1
			}
		}
	}
}